{
  "contractName": "Campaign",
  "abi": [
    {
      "constant": true,
      "inputs": [
        {
          "name": "",
          "type": "address"
        }
      ],
      "name": "approvers",
      "outputs": [
        {
          "name": "",
          "type": "bool"
        }
      ],
      "payable": false,
      "stateMutability": "view",
      "type": "function"
    },
    {
      "constant": true,
      "inputs": [],
      "name": "manager",
      "outputs": [
        {
          "name": "",
          "type": "address"
        }
      ],
      "payable": false,
      "stateMutability": "view",
      "type": "function"
    },
    {
      "constant": true,
      "inputs": [
        {
          "name": "",
          "type": "uint256"
        }
      ],
      "name": "requests",
      "outputs": [
        {
          "name": "description",
          "type": "string"
        },
        {
          "name": "value",
          "type": "uint256"
        },
        {
          "name": "recipient",
          "type": "address"
        },
        {
          "name": "complete",
          "type": "bool"
        },
        {
          "name": "approvalCount",
          "type": "uint256"
        }
      ],
      "payable": false,
      "stateMutability": "view",
      "type": "function"
    },
    {
      "constant": true,
      "inputs": [],
      "name": "approversCount",
      "outputs": [
        {
          "name": "",
          "type": "uint256"
        }
      ],
      "payable": false,
      "stateMutability": "view",
      "type": "function"
    },
    {
      "constant": true,
      "inputs": [],
      "name": "minimumContribution",
      "outputs": [
        {
          "name": "",
          "type": "uint256"
        }
      ],
      "payable": false,
      "stateMutability": "view",
      "type": "function"
    },
    {
      "inputs": [
        {
          "name": "minimum",
          "type": "uint256"
        },
        {
          "name": "creator",
          "type": "address"
        }
      ],
      "payable": false,
      "stateMutability": "nonpayable",
      "type": "constructor"
    },
    {
      "constant": true,
      "inputs": [],
      "name": "getManager",
      "outputs": [
        {
          "name": "",
          "type": "address"
        }
      ],
      "payable": false,
      "stateMutability": "view",
      "type": "function"
    },
    {
      "constant": true,
      "inputs": [],
      "name": "getMinimumContribution",
      "outputs": [
        {
          "name": "",
          "type": "uint256"
        }
      ],
      "payable": false,
      "stateMutability": "view",
      "type": "function"
    },
    {
      "constant": false,
      "inputs": [],
      "name": "contribute",
      "outputs": [],
      "payable": true,
      "stateMutability": "payable",
      "type": "function"
    },
    {
      "constant": false,
      "inputs": [
        {
          "name": "description",
          "type": "string"
        },
        {
          "name": "value",
          "type": "uint256"
        },
        {
          "name": "recipient",
          "type": "address"
        }
      ],
      "name": "createRequest",
      "outputs": [],
      "payable": false,
      "stateMutability": "nonpayable",
      "type": "function"
    },
    {
      "constant": false,
      "inputs": [
        {
          "name": "index",
          "type": "uint256"
        }
      ],
      "name": "approveRequest",
      "outputs": [],
      "payable": false,
      "stateMutability": "nonpayable",
      "type": "function"
    },
    {
      "constant": false,
      "inputs": [
        {
          "name": "index",
          "type": "uint256"
        }
      ],
      "name": "finalizeRequest",
      "outputs": [],
      "payable": false,
      "stateMutability": "nonpayable",
      "type": "function"
    },
    {
      "constant": true,
      "inputs": [],
      "name": "getSummary",
      "outputs": [
        {
          "name": "",
          "type": "uint256"
        },
        {
          "name": "",
          "type": "uint256"
        },
        {
          "name": "",
          "type": "uint256"
        },
        {
          "name": "",
          "type": "uint256"
        },
        {
          "name": "",
          "type": "address"
        }
      ],
      "payable": false,
      "stateMutability": "view",
      "type": "function"
    },
    {
      "constant": true,
      "inputs": [],
      "name": "getRequestsCount",
      "outputs": [
        {
          "name": "",
          "type": "uint256"
        }
      ],
      "payable": false,
      "stateMutability": "view",
      "type": "function"
    }
  ],
  "bytecode": "0x608060405234801561001057600080fd5b506040516040806108f783398101604052805160209091015160018054600160a060020a031916600160a060020a0390921691909117905560025561089d8061005a6000396000f3006080604052600436106100c45763ffffffff7c01000000000000000000000000000000000000000000000000000000006000350416630344100681146100c95780630a144391146100e35780633410452a146101185780634051ddac1461013f578063481c6a751461018857806381d12c58146101b957806382fde0931461027b5780638a9cfd5514610290578063937e09b1146102fa578063d50095841461030f578063d7bb99ba14610324578063d7d1bbdb1461032c578063f84038b114610344575b600080fd5b3480156100d557600080fd5b506100e1600435610359565b005b3480156100ef57600080fd5b50610104600160a060020a0360043516610455565b604080519115158252519081900360200190f35b34801561012457600080fd5b5061012d61046a565b60408051918252519081900360200190f35b34801561014b57600080fd5b50610154610471565b604080519586526020860194909452848401929092526060840152600160a060020a03166080830152519081900360a00190f35b34801561019457600080fd5b5061019d61048e565b60408051600160a060020a039092168252519081900360200190f35b3480156101c557600080fd5b506101d160043561049d565b604051808060200186815260200185600160a060020a0316600160a060020a0316815260200184151515158152602001838152602001828103825287818151815260200191508051906020019080838360005b8381101561023c578181015183820152602001610224565b50505050905090810190601f1680156102695780820380516001836020036101000a031916815260200191505b50965050505050505060405180910390f35b34801561028757600080fd5b5061012d610588565b34801561029c57600080fd5b506040805160206004803580820135601f81018490048402850184019095528484526100e19436949293602493928401919081908401838280828437509497505084359550505050602090910135600160a060020a0316905061058e565b34801561030657600080fd5b5061012d6106c0565b34801561031b57600080fd5b5061019d6106c6565b6100e16106d5565b34801561033857600080fd5b506100e160043561070b565b34801561035057600080fd5b5061012d610798565b600154600090600160a060020a0316331461037357600080fd5b600080548390811061038157fe5b90600052602060002090600502019050600260045481151561039f57fe5b0481600301541115156103b157600080fd5b600281015474010000000000000000000000000000000000000000900460ff16156103db57600080fd5b60028101546001820154604051600160a060020a039092169181156108fc0291906000818181858888f1935050505015801561041b573d6000803e3d6000fd5b50600201805474ff000000000000000000000000000000000000000019167401000000000000000000000000000000000000000017905550565b60036020526000908152604090205460ff1681565b6000545b90565b6002546000546004546001549293303193600160a060020a031690565b600154600160a060020a031681565b60008054829081106104ab57fe5b60009182526020918290206005919091020180546040805160026001841615610100026000190190931692909204601f8101859004850283018501909152808252919350918391908301828280156105445780601f1061051957610100808354040283529160200191610544565b820191906000526020600020905b81548152906001019060200180831161052757829003601f168201915b505050506001830154600284015460039094015492939092600160a060020a03821692507401000000000000000000000000000000000000000090910460ff169085565b60045481565b61059661079e565b600154600160a060020a031633146105ad57600080fd5b506040805160a0810182528481526020808201859052600160a060020a03841692820192909252600060608201819052608082018190528054600181018083559180528251805193949293859360059093027f290decd9548b62a8d60345a988386fc84ba6bc95484008f6362f93160ef3e56301926106309284929101906107d9565b5060208201516001820155604082015160028201805460608501511515740100000000000000000000000000000000000000000274ff000000000000000000000000000000000000000019600160a060020a0390941673ffffffffffffffffffffffffffffffffffffffff1990921691909117929092169190911790556080909101516003909101555050505050565b60025481565b600154600160a060020a031690565b60025434116106e357600080fd5b336000908152600360205260409020805460ff19166001908117909155600480549091019055565b6000808281548110151561071b57fe5b6000918252602080832033845260039091526040909220546005909102909101915060ff16151561074b57600080fd5b33600090815260048201602052604090205460ff161561076a57600080fd5b3360009081526004820160205260409020805460ff1916600190811790915560039091018054909101905550565b60025490565b60a06040519081016040528060608152602001600081526020016000600160a060020a03168152602001600015158152602001600081525090565b828054600181600116156101000203166002900490600052602060002090601f016020900481019282601f1061081a57805160ff1916838001178555610847565b82800160010185558215610847579182015b8281111561084757825182559160200191906001019061082c565b50610853929150610857565b5090565b61046e91905b80821115610853576000815560010161085d5600a165627a7a72305820d3088230f068e5c11013a65e62273777ab1b37b8a84344d3cc53456666aab2d90029",
  "source": "pragma solidity ^0.4.24;\n\ncontract CampaignFactory {\n    address[] public deployedCampaigns;\n\n    function createCampaign(uint minimum) public {\n        address newCampaign = new Campaign(minimum, msg.sender);\n        deployedCampaigns.push(newCampaign);\n    }\n\n    function getDeployedCampaigns() public view returns (address[]) {\n        return deployedCampaigns;\n    }\n}\n\ncontract Campaign {\n    \n    struct Request {\n        string description;\n        uint value;\n        address recipient;\n        bool complete;\n        uint approvalCount;\n        mapping(address => bool) approvals;\n    }\n\n    Request[] public requests;\n    address public manager;\n    uint public minimumContribution;\n    mapping(address => bool) public approvers;\n    uint public approversCount;\n\n    modifier restricted() {\n        require(msg.sender == manager);\n        _;\n    }\n\n    constructor(uint minimum, address creator) public {\n     \n        manager = creator;\n        minimumContribution = minimum;\n    }\n\n    function getManager() public view returns (address) {\n        return manager;\n    }\n\n    function getMinimumContribution() public view returns (uint) {\n        return minimumContribution;\n    }\n\n    function contribute() public payable {\n        require(msg.value > minimumContribution);\n\n        approvers[msg.sender] = true;\n        approversCount++;\n    }\n\n    function createRequest(string description, uint value, address recipient) public restricted {\n        Request memory newRequest = Request({\n           description: description,\n           value: value,\n           recipient: recipient,\n           complete: false,\n           approvalCount: 0\n        });\n\n        requests.push(newRequest);\n    }\n\n    function approveRequest(uint index) public {\n        Request storage request = requests[index];\n\n        require(approvers[msg.sender]);\n        require(!request.approvals[msg.sender]);\n\n        request.approvals[msg.sender] = true;\n        request.approvalCount++;\n    }\n\n    function finalizeRequest(uint index) public restricted {\n        Request storage request = requests[index];\n\n        require(request.approvalCount > (approversCount / 2));\n        require(!request.complete);\n\n        request.recipient.transfer(request.value);\n        request.complete = true;\n    }\n\n    function getSummary() public view returns (\n      uint, uint, uint, uint, address\n      ) {\n        return (\n          minimumContribution,\n          this.balance,\n          requests.length,\n          approversCount,\n          manager\n        );\n    }\n\n    function getRequestsCount() public view returns (uint) {\n        return requests.length;\n    }\n}\n",
  "sourcePath": "/Users/rene/learn/blockchain/ethereum/sgrider-ethereumcasts/experiment/truffle-kickstart/contracts/Campaign.sol",
  "compiler": {
    "name": "solc",
    "version": "0.4.24+commit.e67f0147.Emscripten.clang"
  },
  "schemaVersion": "2.0.1",
  "updatedAt": "2018-08-10T01:58:51.750Z"
}